:020000040800F2
:1000000068080020450100089B110008E90C000861
:1000100099110008B1010008F51100080000000066
:100020000000000000000000000000009F11000818
:10003000B3010008000000009D110008A111000894
:100040005F0100085F0100085F0100085F01000810
:100050005F0100085F0100085F0100085F01000800
:100060005F0100085F0100085F0100085F010008F0
:100070005F0100085F0100085F0100085F010008E0
:100080005F0100085F0100085F0100085F010008D0
:100090005F0100085F0100085F0100085F010008C0
:1000A0005F0100085F0100085F0100085F010008B0
:1000B0005F0100085F0100085F0100085F010008A0
:1000C0005F0100085F0100085F0100085F01000890
:1000D0005F0100085F0100085F0100085F01000880
:1000E0005F0100085F0100085F0100085F01000870
:1000F0005F0100085F0100085F0100085F01000860
:100100005F0100085F0100085F0100085F0100084F
:100110005F0100085F0100085F0100085F0100083F
:100120005F0100085F0100085F0100085F0100082F
:10013000DFF80CD000F02AF800480047D112000880
:10014000680800200648804706480047FEE7FEE7AB
:10015000FEE7FEE7FEE7FEE7FEE7FEE7FEE7FEE777
:10016000F311000831010008D2B201E000F8012BC0
:10017000491EFBD270470022F6E710B513460A4627
:1001800004461946FFF7F0FF204610BD064C074D08
:1001900006E0E06840F0010394E807009847103457
:1001A000AC42F6D3FFF7C8FFD8240008F8240008B3
:1001B000FEE770472DE9F84FDFF8C891002409F1F8
:1001C000040A0AF1040B23460F270BF1040ED1E0B9
:1001D0000125A54006EA0502AA4276D1DFF8A8C1AA
:1001E0004E68A6EB0C0866452BD00DDC032E34D0F0
:1001F00005DC36B3012E19D0022E2FD11BE0112EB3
:1002000016D0122E2AD119E0B8F5881F19D006DCB5
:10021000B8F5803F15D0B8F5801F1FD111E0B8F5B3
:10022000001F0ED0B8F5041F18D10AE0CB6815E006
:10023000CB681B1D12E0CB6808330FE0CB680C3392
:100240000CE08B682BB1012B4FF0080303D0456104
:1002500004E0042302E0056100E00023FF2A01D846
:10026000064601E000F104064FEA840501D9A5F134
:100270002005D6F8008007FA05FC28EA0C0803FAE6
:1002800005F548EA0508C6F800804D68ED0070D510
:100290003E4DAE6946F00106AE61AD6924F003063D
:1002A00005F0010500953A4D06EB050CDCF8085009
:1002B000A607360F07FA06F825EA0805DFF8D48006
:1002C000404503D14FF0000825E052E0DFF8C88038
:1002D000404502D14FF001081DE0DFF8C0804045E5
:1002E00002D14FF0020816E0DFF8B480404502D199
:1002F0004FF003080FE0DFF8AC80404502D14FF02B
:10030000040808E0DFF8A080404502D14FF005085E
:1003100001E04FF0060808FA06F848EA0508CCF8AC
:1003200008804D68D9F80060ED034D4601D51643AD
:1003300000E096432E604D68DAF80060AD03554644
:1003400001D5164300E096432E604D68DBF800604F
:10035000ED025D4601D5164300E096432E604D68E0
:10036000DEF80060AD02754601D5164300E0964305
:100370002E60641C0A681646E2407FF429AFBDE88F
:10038000F88F00000004014000001110001002402E
:100390000000014000080140000C01400010014035
:1003A0000014014000180140001C01400AB1016125
:1003B00070470904FBE700000148806870470000AF
:1003C0000000002070B5040025D094F83D00002501
:1003D00020B984F83C50204600F04EF9242084F8DF
:1003E0003D002068016821F001010160206801687A
:1003F00041F4004101602068016821F4004101607E
:1004000000F088FA4D4A6168914201D84C4900E0F9
:100410004C49884201D2012070BD4B492368B0FB92
:10042000F1F15E6826F03F060E435E60636893421A
:1004300006D94FF4967359434FF47A73B1FBF3F135
:100440002368491C1E6A26F03F0631431962616821
:10045000914210D84900401EB0FBF1F2521CC2F389
:100460000B02042A01D2042022E0B0FBF1F0401C70
:10047000C0F30B001CE0A268F2B301EBC10303EB75
:100480000116431EB3FBF6F35B1C43F480431B05CC
:1004900049D092B301EBC10202EB0111401EB0FB47
:1004A000F1F0401CC0F30B0040F4804040F40040E9
:1004B0002168CA694CF6FF739A431043C861D4E9B6
:1004C000071001432068026822F0C0021143016056
:1004D000D4E9030101432068826848F2FF339A435C
:1004E00011438160D4E9050108432168CA6822F0FC
:1004F000FF021043C86001E00EE016E020680168CA
:1005000041F0010101602564202084F83D0025634D
:1005100084F83E50002070BD01EB4106431EB3FB42
:10052000F6F35B1CB3E70120C2E701EB4101401E7B
:10053000B0FBF1F0401CC0F30B00B7E7A086010050
:1005400080841E0000093D0040420F002DE9F84F55
:100550001F4690468A460446DDF82890FFF72CFF98
:10056000054694F83D0020287FD1192301224049F7
:100570002046009500F044FC002876D194F83C0019
:10058000012872D0012084F83C0020680168C90766
:1005900003D1016841F0010101602068016821F484
:1005A00000610160212084F83D00102084F83E00A5
:1005B00000262664C4F824806785608D20852D4838
:1005C000E0622B464A465146204600F0A5FB90B912
:1005D000206841698069009036E02A4649462046F5
:1005E00000F08DFC50B1206C042804D12068016813
:1005F00041F4007101600120BDE8F88F606A216854
:1006000000780861606A401C6062618D491E6185E6
:10061000218D491E89B2218522685369DB435B071E
:100620000BD451B100781061606A401C6062608D2B
:10063000401E6085208D401E20852A464946204662
:1006400000F0B8FB0028CED1208D0028C5D154F889
:100650003D0B016841F400710160202004F81E097F
:10066000E67766770020C7E7FFE70220C4E70000CF
:10067000020010000000FFFF10B586B000210091BD
:1006800001910291039100680F4988421AD10F4CE1
:10069000A06940F00800A061A069694600F0080068
:1006A0000490C0200090122001900320039008487D
:1006B000FFF780FDE06940F40010E061E06900F4BC
:1006C0000010049006B010BD00540040001002401D
:1006D000000C014002488168027811448160704733
:1006E00000000020074810B5016841F010010160CA
:1006F000032000F067F8002000F006F800F024F86E
:10070000002010BD0020024070B50D4D04464FF48E
:100710007A712878B1FBF0F00A490968B1FBF0F072
:1007200000F0CEFA48B9102C07D200222146501E04
:1007300000F028F800206C6070BD012070BD000042
:10074000000000200C0000200C4808B5816941F031
:1007500001018161816901F001010091C16941F0EC
:100760008051C161C06900F0805000900448416828
:1007700021F0E06141F00071416008BD00100240CD
:1007800000000140F0B40E4B1B680C46C3F302237B
:10079000C3F10705042D00D90425191D072901D22D
:1007A000002300E0DB1E012606FA05F1491E214068
:1007B00099409E40761E16403143F0BC00F01BBDB0
:1007C0000CED00E0064900F0070208684FF6FF0351
:1007D000184040EA0220034A1043086070470000B6
:1007E0000CED00E00000FA052DE9F0470F4605008A
:1007F00061D0434E306800F00700B84209D230683B
:1008000020F0070038433060306800F00700B8423D
:1008100051D128683B4C810712D5400703D5606849
:1008200040F4E06060602878000703D5606840F419
:10083000605060606068A96820F0F0000843606064
:100840002878C00728D06868012810D021680228BD
:1008500010D0890700292EDA616821F003010143D5
:100860006160FFF7A9FD804641F288390DE02168FB
:100870008903EFE78901EDE7FFF79EFDA0EB080193
:10088000494502D90320BDE8F0876068696800F037
:100890000C00B0EB810FEFD1306800F00700B842D8
:1008A0000BD9306820F0070038433060306800F022
:1008B0000700B84201D00120E5E72878400705D5B8
:1008C0006068E96820F4E060084360602878000709
:1008D00006D56068296920F4605040EAC100606074
:1008E00000F028F86168084AC1F30311515CC84060
:1008F0000649086006480068FFF706FF0020C2E7C7
:1009000000200240001002404E1400080C0000209D
:10091000040000200448054900684968044AC1F3FE
:100920000221515CC84070470C00002000100240BA
:100930005E14000812A185B00FC98DE80F0014A045
:10094000144A006804905168134801F00C03042B0A
:1009500010D0082B0ED1C1F38343C9031DF8030047
:100960000AD5516804AAC1F34041515C0A4A504378
:10097000B0FBF1F005B0704708494843FAE70000C2
:1009800002030405060708090A0B0C0D0E0F1010D0
:10099000010200000010024000127A0000093D0030
:1009A0002DE9F84F040070D02078C04DC00749D021
:1009B0006868C0F38100012807D06868C0F381002F
:1009C000022809D16868C00306D52868800339D594
:1009D00060680028E7D035E06068B0F5803F0BD054
:1009E00010B1B0F5A02F11D0286820F48030286015
:1009F000286820F4802002E0286840F480302860D5
:100A0000606890B1FFF7D8FC06460AE0286840F419
:100A100080202860F0E700BFFFF7CEFC801B642831
:100A200073D828688003F7D50CE0FFF7C5FC0646AD
:100A300005E000BFFFF7C0FC801B6428F0D82868E1
:100A40008003F7D420789A4E80074FF001094FF0C9
:100A5000000839D5686810F00C0F07D06868C0F33B
:100A60008100022809D16868C00306D4286880077D
:100A700014D52069012808D110E02069B0B1C6F86A
:100A80000090FFF799FC074605E00AE1FFF794FCA8
:100A9000C01B0228C4D828688007F7D52868616978
:100AA00020F0F80040EAC10028600DE0C6F80080A0
:100AB000FFF782FC074604E0FFF77EFCC01B02281C
:100AC00023D828688007F7D4207800072CD57948E8
:100AD000A169D9B1C0F80090FFF76EFC074604E0A9
:100AE000FFF76AFCC01B02280FD8686A8007F7D599
:100AF00071484FF4FA510068B0FBF1F0009000BF6C
:100B00000098411E0091FAD20EE080E0C0F800800B
:100B1000FFF752FC074604E0FFF74EFCC01B02281B
:100B200075D8686A8007F7D42078400760D5E869EF
:100B30000027C00008D4E86940F08050E861E86907
:100B4000012700F0805000905C480168C90513D46B
:100B50000168834641F480710160FFF72DFC8246F5
:100B600006E000BFFFF728FCA0EB0A0064284ED87F
:100B7000DBF80000C005F5D5E06801280AD008B10F
:100B8000052813D0286A20F001002862286A20F086
:100B9000040002E0286A40F001002862E06841F2A7
:100BA000883B98B1FFF708FC82460BE0286A40F0CA
:100BB00004002862EEE700BFFFF7FEFBA0EB0A018E
:100BC00059455AD8286A8007F6D50CE0FFF7F4FBA0
:100BD000824605E0FFF7F0FBA0EB0A0159454CD82F
:100BE000286A8007F6D41FB1E86920F08050E861D8
:100BF000E06988B36968C1F38101022944D0022801
:100C0000C6F8608004D0FFF7D7FB044638E034E034
:100C1000FFF7D2FB074604E0FFF7CEFBC01B02281C
:100C20002BD828688001F7D4206AB0F5803F05D121
:100C30006868A16820F4003008436860D4E90801BE
:100C40000843696821F4741108436860C6F860902D
:100C5000FFF7B2FB044606E025E000BFFFF7ACFB60
:100C6000001B022809D828688001F7D51BE000BFC7
:100C7000FFF7A2FB001B022802D90320BDE8F88F72
:100C800028688001F4D40EE00128F7D06868226A51
:100C900000F48031914204D1616A00F470108842FE
:100CA00001D00120EAE70020E8E700000010024040
:100CB00000004242800442420C00002000700040CC
:100CC00010B5401EB0F1807F01D3012010BD4FF060
:100CD000E02460610F21601700F08DFA0020A06110
:100CE00007202061002010BDFEE701684A69D24359
:100CF00052050FD46FF480624A61002140F8301F22
:100D0000202242738173026942F00402026101737E
:100D10000120704700207047F8B50446C06A1E469F
:100D20000D461746082807D0012805D010F5803F4A
:100D300002D0206B122804D12068016841F4807130
:100D40000160134600224FF001112046009600F08A
:100D500057F840B120680068C00502D54FF4007014
:100D600020640320F8BD2069B0F5804F0ED0062026
:100D7000216800EAD51040F0F000086133463A4699
:100D80000B49204600F070F878B902E005F0FE004B
:100D900000E0E8B221680861054933463A46891FF8
:100DA000204600F061F80028DCD00120F8BD0000EA
:100DB0000800010070B516460D4604460DE02046B9
:100DC000FFF793FF08B1012070BD681C05D0FFF745
:100DD000F3FA801BA84207D835B120684069C043A8
:100DE0004007ECD4002070BD002044F8300F2021D3
:100DF0006173A073216941F0200121612073E2E752
:100E00002DE9F0471E4690460D460446C1F30747BC
:100E1000DDF8209008E0701C06D0FFF7CDFAA0EBBB
:100E20000900B0420FD876B12068012F18D0806930
:100E300025EA00000004000C14D000214145EAD04E
:100E40000020BDE8F087002044F8300F20216173B6
:100E5000A073216941F02001216120730120F0E796
:100E60004069E5E70121E9E72DE9F0479A46914617
:100E70000E46044600254FF02008C1F3074725E041
:100E800020684069C043400514D42068016841F4DB
:100E90000071016021686FF480604861256384F807
:100EA0003D8084F83E50206C40F00400206484F8BB
:100EB0003C501FE0B9F1FF3F08D0FFF77DFAA0EBEF
:100EC0000A0149450CD8B9F1000F09D02068012F5B
:100ED00013D0806926EA00000004000C0BD0CFE795
:100EE00044F8305F84F80D80A573206940F020003D
:100EF000206125730120BDE8F0874069EAE770B5FD
:100F000016460D4604460DE02046FFF7EEFE08B1FA
:100F1000012070BD681C05D0FFF74EFA801BA84267
:100F200007D835B120684069C0430006ECD40020E2
:100F300070BD002044F8300F20216173A073216937
:100F400041F0200121612073E2E7000010B52B4C35
:100F5000012220212046FFF729FA642000F086F9BB
:100F6000002220212046FFF721FA0A2000F07EF916
:100F7000012220212046FFF719FAAA2000F05AF991
:100F8000312000F08BF9002000F088F9242000F0D7
:100F900085F9C42000F082F9D22000F07FF9EB201F
:100FA00000F07CF9812000F079F9502000F076F90A
:100FB000F42000F073F9002000F070F9F62000F042
:100FC0006DF9142000F06AF9F52000F067F90020AF
:100FD00000F064F9F72000F061F97F2000F05EF97D
:100FE000F92000F05BF9012000F058F8AF2000F084
:100FF00055F9BDE810400C2000F01CB9000C014070
:101000002DE9FF4F81B082469B460025AE200E9E03
:1010100000F044F9E94636E0002402982044C1B2C9
:10102000504600F0FFF971571B480BF0030700EB27
:1010300001102044A0F58050039990F8002E002064
:1010400001F0030C09EB90010B789B080B705FEA31
:10105000C27802D043EA8C1301E043EA8713401CB4
:101060005208C0B20B700828ECD30221684600F089
:1010700023F9641CE4B2102CCFD36D1C0AF10200DA
:10108000EDB200F0FF0A705D0028C5D1AF2000F07E
:1010900005F905B0BDE8F08FE61E000830B500F098
:1010A0000300810141EA001141EA8004044389B050
:1010B000AE2000F0F3F8002001A90C54401CC0B28F
:1010C0002028FAD300240A252146002000F0AAF99E
:1010D000152301AA722106480095FFF737FA641C10
:1010E000E4B2802CF0D3AF2000F0D8F809B030BDC6
:1010F0001000002070B50546AE2000F0CFF80024A7
:101100002146002000F08EF9C4EBC40000EB400043
:101110002844152100F0D0F8641CE4B2802CEFD3F1
:10112000BDE87040AF2000F0B9B8000010B586B03F
:10113000002000900190029003901548816941F0D1
:1011400020018161816901F020010491816941F0F0
:1011500004018161816901F004010491816941F018
:101160000801816180690B4C00F0080004900122A5
:1011700020212046FFF71AF901212020CDE90001A6
:101180000291039169462046FFF714F806B010BD9E
:1011900000100240000C0140FEE7704770477047A6
:1011A000FFF798BA30B58FB028216846FEF7E3FF05
:1011B00014210AA8FEF7DFFF01210804CDE9001081
:1011C0000024029402250491CDE907504FF4E01069
:1011D00009906846FFF7E4FB0F20CDE90A05680295
:1011E000CDE90C4002210AA80E94FFF7FDFA0FB0DA
:1011F00030BD7047FEE70907090E002804DB00F147
:10120000E02080F80014704700F00F0000F1E020AB
:1012100080F8141D704702E008C8121F08C1002A98
:10122000FAD170477047002001E001C1121F002A67
:10123000FBD1704730B500224FF0E0210A4C0FE09F
:101240004C618A610B6943F001030B610B69DD0797
:1012500001D0DB03FAD50B6923F001030B618A612E
:10126000401E80B2ECD230BD4019010000EBC0003E
:10127000C1004FF0E020416100228261016941F02C
:10128000010101610169CB0701D0C903FAD50169E8
:1012900021F00101016182617047000001B582B057
:1012A0000A200090012302AA70210248FFF74EF99C
:1012B0000EBD00001000002008B5642200920B460D
:1012C000024672210148FFF741F908BD10000020D5
:1012D00008B5FFF707FAFFF765FFFFF727FF41485B
:1012E0003F494FF4804201603F49416000218160E5
:1012F000C0E9031241618161C1610162FFF762F8D7
:10130000FFF724FE3948FFF7F5FE4FF47A756C10AD
:1013100041F288363548FFF7EDFE2846FFF78AFF91
:101320000020FFF7BBFE2046FFF784FF0120FFF7F8
:10133000B5FE2046FFF77EFF0220FFF7AFFE2046F6
:10134000FFF778FF0320FFF7A9FE2046FFF772FFA3
:101350000020FFF7A3FE26A00023009003221946D9
:101360001846FFF74DFE24A0002300900322102111
:101370001846FFF745FE22A00023009003222021FB
:101380001846FFF73DFE21A00023009002223021E5
:101390001846FFF735FE20A00023009001224021CF
:1013A0001846FFF72DFE16A00022009003235021BF
:1013B0001046FFF725FE15A00022009002236021B1
:1013C0001046FFF71DFE14A000220090012370219B
:1013D0001046FFF715FE3046FFF72CFF9AE7000096
:1013E0000054004010000020801A06006614000817
:1013F00048656C6C6F0000002020776F726C640091
:101400004142434445464748494A0000616263649B
:1014100065666768696A00003031323334353637C3
:101420003839000070B5054601F00F000C4640F059
:101430006000FFF733FFC4F3021040F07000FFF7C5
:101440002DFF05F01F00BDE87040FFF727BF00002B
:101450000000000000000102030406070809000064
:101460000000010203040000000000000000000072
:10147000000000000000000000000000000000006C
:10148000000000000000000000000000000000005C
:10149000000000000000000000000000000000004C
:1014A000000000000000000000000000000000003C
:1014B000000000000000000000000000000000002C
:1014C000000000000000000000000000000000001C
:1014D000000000000000000000000000000000000C
:1014E00000000000000000000000000000000000FC
:1014F00000000000000000000000000000000000EC
:1015000000000000000000000000000000000000DB
:1015100000000000000000000000000000000000CB
:1015200000000000000000000000000000000000BB
:1015300000000000000000000000000000000000AB
:10154000000000000000000000000000000000009B
:10155000000000000000000000000000000000008B
:10156000000000000000000000000000000000007B
:10157000000000000000000000000000000000006B
:10158000000000000000000000000000000000005B
:10159000000000000000000000000000000000004B
:1015A000000000000000000000000000000000003B
:1015B000000000000000000000000000000000002B
:1015C000000000000000000000000000000000001B
:1015D00000000040FABF6A000000000000000000A8
:1015E0000000000000000080FEFFFFFFBF010000C0
:1015F000000000000000000000000000FEFFFFFFF0
:10160000FFFFBF020000000000000000000000001B
:10161000F8FFFFFFFFFFFFFF7F000000000000005A
:101620000000000080FFFFFFFFFFFFFFFFFF07003C
:10163000000000000000000000F8FFFFFFFFFFFFB8
:10164000FFFFFF7F00000000000000000080FFFFA0
:10165000FFFFFFFFFFFFFFFFFF0300000000000090
:101660000000F4FFFFFFFFFFFFFFFFFFFFFF1F0072
:1016700000000000000000FEFFFFFFFFFFFFFFFF74
:10168000FFFFFFBF0000000000000080FFFFFFFF22
:10169000FFFFFFFFFFFFFFFFFF0200000000000051
:1016A000E0FFFFFFFFFFFFFFFFFFFFFFFFFF0F0058
:1016B0000000000000FCFFFFFFFFFFFFFFFFFFFF38
:1016C000FFFFFF3F000000000000FEFFFFFFFFFFE5
:1016D000FFFFFFFFFFFFFFFFFF000000000080FF94
:1016E000FFFFFFFFFFFFFFFFFFFFFFFFFFFF030005
:1016F000000000D0FFFFFFFFFFFFFFFFFFFFFFFF26
:10170000FFFFFF0B00000000F0FFFFFFFFFFFFFFE8
:10171000FFFFFFFFFFFFFFFF2F00000000FCFFFFA8
:10172000FFFFFFFFFFFFFFFFFFFFFFFFFF7F000047
:101730000000FDFFFFFFFFFFFFFFFFFFFFFFFFFFB9
:10174000FFFFFF00000000FFFFFFFFFFFFFFFFFFA5
:10175000FFFFFFFFFFFFFFFF02000080FFFFFFFF13
:10176000FFFFFFFFFFFFFFFFFFFFFFFFFF0700007F
:10177000C0FFFFFFFFFFFFFFFFFFFFFFFFFFFFFFB8
:10178000FFFF0F0000E0FFFFFFFFFFFFFFFFFFFF76
:10179000FFFFFFFFFFFFFF1F0000F0FFFFFFFFFF46
:1017A000FFFFFFFFFFFFFFFFFFFFFFFF3F0000F80E
:1017B000FFFFFFFFFFFFFFFFFFFFFFFFFFFFFFFF39
:1017C000FF3F0000FCFFFFFFFFFFFFFFFFFFFFFFEA
:1017D000FFFFFFFFFFFF7F0000FDFFFFFFFFFFFF99
:1017E000FFFFFFFFFFFFFFFFFFFFFFBF0000FEFF48
:1017F000FFFFBF5600000054EAFFFFFFFFFFFFFF9F
:10180000FF0000FFFFFFBF0100000000000094FE8A
:10181000FFFFFFFFFFFF0180FFFFFF02000000004E
:101820000000000040FEFFFFFFFFFF02C0FFFFFFC0
:1018300001000000000000000000D0FFFFFFFFFFDC
:1018400002C0FFFFFF020000000000000000008057
:10185000FFFFFFFFFF03D0FFFFFF020000000000BB
:101860000000000080FFFFFFFFFF03E0FFFFFF021B
:1018700000000000000000000080FFFFFFFFFF03EA
:10188000F0FFFFFF4116000000000000000080FF95
:10189000FFFFFFFF03F0FFFFFF41FE1F50000000AE
:1018A00000000080FFFFFFFFFF03F4FFFFFF81AB9D
:1018B000BF969AFF5B110000C0FFFFFFFFFF03F41C
:1018C000FFFFFF4106FC0BFEFF6A550100C0FFFF52
:1018D000FFFFFF02F8FFFFFF00A4FE06D01BF0BFD2
:1018E0000200C0FFFFFFFFFF02F8FFFFFF0050569E
:1018F00000406AA5A50100C0FFBFFFFFFF02F8FF7F
:10190000FFBF00000000004019000000D0FF6FFF83
:10191000FFFF01F8FFFF7F0000040000000000004F
:1019200000D0FF56FDFFFF01F4FFFF3F000009005C
:10193000000000000000E0FF5BFEFFFF0020FEFF54
:101940001F00400100001000000000F0FFAFFFFF8B
:10195000BF0000E8FF0B005511000050050000001B
:10196000F0FFEFFFFFBF000000E00300A4E1EBBFCA
:101970000168000000F0FFFFFFFF3F000000F001E2
:10198000001440FE5A00E05B0000F4FFFFFFFF3F41
:10199000000000F400000000400000401A0000F4C5
:1019A000FFFFFFFF1F000000B800000055001000FF
:1019B0000005000040FEFFFFFF07000000BC000024
:1019C00000FDAFBEAA6A0000000090FFFFF7020012
:1019D00000007C000000805655651A0000000000E1
:1019E000F45751000000007D00001000000000507E
:1019F0000024000000F40100000000007C00000052
:101A0000E0566A055001BE000000FC000000000026
:101A100000BC00000090FF0B001481FF0000007E5E
:101A2000000000000000FC0000000050000004D096
:101A3000BB0000402F000000000000F80100000083
:101A400000000000E0B00000F81F000000000000EF
:101A5000F00700000000000000F4F10080FF3F00EC
:101A60000000000000D02F00000000000000FEF188
:101A700002E01BFD00000000000040FF010000002C
:101A80000000805FE00BF002F403000000000000A3
:101A9000FD1B0000000000D003803FFD00D00B00C4
:101AA0000000000000F0FF0600000000F00200FD52
:101AB000BF00800F00000000000040FFBF060000D4
:101AC00000F00000F87F00401F0000000000000050
:101AD000E4FFFFAB5555FE0000E03F00003E000074
:101AE000000000000000F9FFFFFFFFBF0000807F43
:101AF00000003D0000000000000000D0FFFFFFFFDD
:101B0000FF000000BF00007C00000000000000009B
:101B1000F0BF6FA956F902F400FC0100F8000000C4
:101B20000000000000F4BE1F0000F4AFFF00F0074B
:101B300000F80000000000000000BCBE1F0000F420
:101B4000FFFF03C0AF01F400000000000000007CB4
:101B5000EF0F0000F4FE870F00FFAFF5000000005C
:101B6000000000002DEF0F5455F4FA023F00F8FF7B
:101B7000FF00000000000000000405010000509577
:101B8000012800405A690000000000000000000029
:101B90000000000000000000000000000000000045
:101BA0000000000000000000000000000000000035
:101BB0000000000000000000000000000000000025
:101BC0000000000000000000000000000000000015
:101BD0000000000000000000000000000000000005
:101BE00000000000000000000000000000000000F5
:101BF00000000000000000000000000000000000E5
:101C000000000000000000000000000000000000D4
:101C100000000000000000000000000000000000C4
:101C200000000000000000000000000000000000B4
:101C300000000000000000000000000000000000A4
:101C40000000000000000000000000000000000094
:101C50000000000000000000000000000000000084
:101C600000A5010000A9010000A90100000000007A
:101C7000000000000080AA0A0090AA0A0090AA06AC
:101C800000000000000000000000A0011A00A441B4
:101C90001A00A8810A00000000000000000000688F
:101CA000402A0068401A0029401A00000000000085
:101CB0000000000029001A002A001A001A400A0039
:101CC0000000000000000000002A0000001A0000D0
:101CD000400A0000000000000000000000401A0060
:101CE00000400A0000800A00000000000000000020
:101CF0000000401A1000800A1000800A1400000042
:101D000000000000000000404AAA06804AAA06809F
:101D10008AAA0200000000000000000080AAAA1A9F
:101D200080AAAA1A80AAAA0A0000000000000000E7
:101D30000080AA402A80AA402A806A802A000000E7
:101D4000000000000000802A0069802A0069902AB3
:101D5000002A000000000000000000801A00A88097
:101D60000A0068900A0069000000000000000000FE
:101D7000800A00A8800A00A8800A0068000000000D
:101D80000000000000800A00A8800A00A8800A0065
:101D900068000000000000000000401A00A8800A4F
:101DA00000A8800A00680000000000000000000099
:101DB0001A00A8401A0068800A00690000000000AC
:101DC00000000000002A0068002A0069401A00296B
:101DD00000000000000000000000690029006A0007
:101DE0002A002A002A00000000000000000000A8CD
:101DF000411A00A8810A00A8810A00000000000022
:101E000000000000A0AA0600A0AA0200A0AA0200EA
:101E10000000000000000000000055000000550018
:101E2000000015000000000000000000000000009D
:101E300000000000000000000000000000000000A2
:101E40000000000000000000000000000000000092
:101E50000000000000000000000000000000000082
:101E60000000000000000000000000000000000072
:101E70000000000000000000000000000000000062
:101E80000000000000000000000000000000000052
:101E90000000000000000000000000000000000042
:101EA0000000000000000000000000000000000032
:101EB0000000000000000000000000000000000022
:101EC0000000000000000000000000000000000012
:101ED0000000000000000000000000000000000002
:101EE00000000000000000000000000000000000F2
:101EF00000000000000000000008080808080808AA
:101F0000000008080000004824241200000000001F
:101F10000000000000000000004848487E242424FF
:101F20007E24242400000000103C5252121C305029
:101F30005052523C1010000000222515150D2A5851
:101F40005454522200000000000C1212120A76258E
:101F50002919916E00000006040402000000000030
:101F600000000000000000402010100808080808C9
:101F70000810102040000002040808101010101073
:101F80001008080402000000000008086B1C1C6B0D
:101F90000808000000000000000000101010FE10F3
:101FA0001010000000000000000000000000000011
:101FB00000000604040200000000000000007E0093
:101FC0000000000000000000000000000000000011
:101FD0000000060600000000402020201010080825
:101FE0000804040202000000001824424242424257
:101FF000424224180000000000101C1010101010A5
:102000001010107C00000000003C424242402010B2
:102010000804427E00000000003C4242402018209C
:102020004042423C0000000000203030282424229E
:10203000FE2020F800000000007E0202021E224066
:102040004042221C0000000000182402023A4642CE
:102050004242443800000000007E42202010100858
:102060000808080800000000003C424242241824EE
:102070004242423C00000000001C22424242625C9C
:102080004040241800000000000000001818000064
:102090000000181800000000000000000008000008
:1020A0000000000808080000004020100804020496
:1020B0000810204000000000000000007E00007EAC
:1020C0000000000000000000000204081020402072
:1020D0001008040200000000003C4242462010109C
:1020E0001000181800000000001C225A55555555C4
:1020F000553A423C00000000000808181414243C23
:10210000224242E700000000001F2222221E22423B
:102110004242221F00000000007C424201010101F6
:102120000142221C00000000001F224242424242A3
:102130004242221F00000000003F4212121E1212F3
:102140000242423F00000000003F4212121E1212E3
:102150000202020700000000003C2222010101717E
:102160002122221C0000000000E7424242427E423F
:10217000424242E700000000003E08080808080844
:102180000808083E00000000007C1010101010101D
:1021900010101010110F0000007722120A0E0A1200
:1021A000122222770000000000070202020202024F
:1021B0000202427F00000000007736363636362AAB
:1021C0002A2A2A6B0000000000E346464A4A52527F
:1021D0005262624700000000001C2241414141411F
:1021E0004141221C00000000003F424242423E02A8
:1021F0000202020700000000001C2241414141414F
:10220000414D321C60000000003F4242423E12122B
:10221000222242C700000000007C42420204182033
:102220004042423E00000000007F490808080808BC
:102230000808081C0000000000E7424242424242F7
:102240004242423C0000000000E7424222242414A3
:102250001418080800000000006B2A2A2A2A2A36CF
:10226000141414140000000000E742242418181865
:10227000242442E7000000000077222214140808FA
:102280000808081C00000000007E2120101008042F
:102290000442423F000000780808080808080808BF
:1022A0000808080878000000020404040808081060
:1022B000102020204040001E101010101010101090
:1022C000101010101E000018240000000000000074
:1022D00000000000000000000000000000000000FE
:1022E0000000000000FF00060800000000000000E1
:1022F000000000000000000000000000001C223070
:102300002C22326C0000000000000302021A264258
:102310004242261A0000000000000000003844027B
:10232000020244380000000000006040407C42424D
:10233000424262DC0000000000000000003C42421B
:102340007E02423C0000000000003048083E0808C1
:102350000808083E0000000000000000007C222267
:102360001C023C42423C000000000302023A46428A
:10237000424242E700000000000C0C00000E08087A
:102380000808083E0000000000303000003820201F
:1023900020202020221E0000000003020272120AE8
:1023A0000E1222770000000000080E080808080836
:1023B0000808083E0000000000000000007F929224
:1023C000929292B70000000000000000003B4642DD
:1023D000424242E70000000000000000003C424290
:1023E0004242423C0000000000000000001B264268
:1023F0004242261A02070000000000000058644212
:102400004242645840E000000000000000774C04A5
:102410000404041F0000000000000000007C4202D1
:102420003C40423E0000000000000008083E080852
:10243000080848300000000000000000006342422D
:10244000424262DC0000000000000000007722220F
:1024500014140808000000000000000000DB915286
:102460005A2A24240000000000000000006E2418F6
:1024700018182476000000000000000000E7422445
:10248000241818080806000000000000007E221032
:102490000808447E000000C02020202020201020BA
:1024A00020202020C000101010101010101010104C
:1024B0001010101010100003040404040404080495
:1024C000040404040300045A20000000000000007B
:1024D0000000000000000000F824000800000020B8
:1024E0001000000016120008082500081000002047
:1024F000580800002612000801000000100000002B
:08250000000000000024F400BB
:0400000508000131BD
:00000001FF
